:0400000063EF09F0B1
:08000800046ED8CF05F0E0CF33
:1000100006F00001E9CF0CF0EACF07F0E1CF08F0DD
:10002000E2CF09F0D9CF0AF0DACF0BF0F3CF12F01C
:10003000F4CF13F0FACF14F0F5CF15F0F6CF16F099
:10004000F7CF17F000C00EF001C00FF002C010F0A3
:1000500003C011F05DEF00F00EC000F00FC001F022
:1000600010C002F011C003F00CC0E9FF07C0EAFFA6
:10007000078E08C0E1FF09C0E2FF0AC0D9FF0BC02C
:10008000DAFF12C0F3FF13C0F4FF14C0FAFF15C06B
:10009000F5FF16C0F6FF17C0F7FF045006C0E0FFDB
:1000A00005C0D8FF1000F76AB60FF66E000EF722F3
:1000B0000900F5501200280C0106F2A20AD0F292B3
:1000C0008B90CE501E6ECFCF1FF0CF6ACE6A1980B4
:1000D0001ED0F0A00DD0F09019B604D01986B36AE6
:1000E000B26A05D01996B250226EB3CF23F00FD06A
:1000F0009EA003D09E9019820AD0A1A204D0A19202
:10010000236A226A04D09EA402D09E948B800000B1
:100110002CEF00F052504D3D25356C7520202020ED
:10012000202000005350494E444C45205649455725
:100130002E2E2E2E00003D3D3D3D3D3D3D3D3D3DA5
:100140003D3D3D3D3D3D0000202020202020202041
:10015000202020202020202000000C004D61696E0E
:10016000206E6F7420666F756E6400000C004D6128
:10017000696E20666F756E6400000C000C005355AC
:100180005045522D504944202056312E30005355B1
:100190005045522D504944202056312E30000C003D
:1001A000010EEA6E190EE96EEF500DE0060E016EBB
:1001B000006A002EFED7012EFBD77B0E006E002EAC
:1001C000FED7EF2EF3D71200010120B102D08A9A98
:1001D00001D08A8A20B302D08A9801D08A8820B5BB
:1001E00002D08A9601D08A8620B702D08A9401D0A4
:1001F0008A8400008A8C030E006E002EFED78A9C33
:10020000000112008A9E630E006E002EFED700D001
:1002100001011D5302E08A8E01D08A9E00008A9C53
:100220001E391F6F0F0E1F171FC120F10001CCDFF9
:1002300001011E510F0B1F6F206F0001C5DF12005F
:100240008A9E8A9C0F0E0101196F0001A9DF01012E
:100250000B6B0B5102080CE3030E206F0001B4DF9F
:10026000050E0101196F00019BDF01010B2BF1D776
:10027000020E206F0001A8DF01010B6B0B51030878
:1002800012E3036A0B5100010EDF01010C6F1D6BBD
:100290001E6F0001B7DF050E0101196F000180DF3D
:1002A00001010B2BEBD70001AFEF01F001011A2D7B
:1002B00001D003D0400E1B6F01D01B6B010E195DE6
:1002C0001B271B5180091C6F1D6B1E6F00019ADFDD
:1002D0001200010118510C0A000105E0060A0FE0A6
:1002E000020A15E01BD001011D6B010E1E6F0001FB
:1002F00089DF020E0101196F000152DF17D0010ED4
:100300000101196F020E1A6F0001D0DF0FD0010139
:100310001D6B100E1E6F000175DF08D0010E01016C
:100320001D6F18C11EF100016DDF00D01200090021
:10033000F5520CE0F6CF0BF1F7CF0CF1F5CF18F139
:10034000C8DF0BC1F6FF0CC1F7FFF1D71200FF0E9B
:10035000926E030E936EF80E946E8B6A71D77C0EBC
:10036000F66E010EF76EE3DF020E0101196F010E4A
:100370001A6F00019BDF7E0EF66E010EF76ED7DF5F
:10038000020E0101196F1A6F000190DF8E0EF66EDA
:10039000010EF76ECCDF040E01010B6FFA0E196F20
:1003A0000001FEDE01010B2FF9D79E0EF66E010E45
:1003B000F76E0001BCDFC150C00B0E09C16EC0500A
:1003C000C00B0709C06EC08EC280000E016EC25005
:1003D000C30B0110C26E820ED56E850ECD6E000E5F
:1003E0000409CA6E830ECB6EB50EB16E0A0EBD6ED9
:1003F0008B920C0EBA6E280EBB6EF288F0869D8032
:10040000A082C00EF212F18CF18A8B901992A2EFA9
:1004100009F08E0E006E11C101F010C102F0036AE6
:10042000015209E102C001F0026A080E005E0152A9
:1004300002E1006A08D0D89001BE04D0023601362D
:100440000006F9D7019E120001011451D8B4A5D0BD
:10045000206F1851D8B4A1D0205F05E37F0E20276C
:10046000D8B09BD006D0810E205FD8A096D0D8B44B
:1004700094D020C100F0016A026A036A1F6B15C1A3
:100480001EF11E8F16C11DF117C11CF1190E206F30
:100490001B511C5F0DE2010E1D5F0AE21E5F08E2A8
:1004A0001F5F06E21F2B1E2B1D2B1B511C2728D064
:1004B0001A511D5F12E2010E1E5F0FE21F5F0DE277
:1004C0001F2B1E2B1A511D271B511C2719E31D2BF7
:1004D00017E11E2B15E11F2B13D0195180091E5F48
:1004E0000EE2010E1F5F0BE21F2B195180091E2720
:1004F0001A511D27E9E31E2BE7E11F2BE5D70380E7
:10050000202F01D00BD0D8901C371D371E371F3736
:10051000D8900336023601362137BAD721A106D04A
:10052000D890013202320332213302D0000635E086
:1005300021BF1ED0D8901C371D371E371F371B51C7
:100540001C5F07E2010E1D5F04E21E5F02E21F5FF7
:100550001AE31A511D5F05E2010E1E5F02E21F5FE2
:1005600012E3195180091E5F03E2010E1F5F0BE3C6
:10057000032A09E1022A07E1012A05E1002A0DE028
:1005800001320232033215C120F11951201B20AF74
:1005900002D0018E06D0019E04D0006A016A026A70
:1005A000036A000112008E0E006E01011051005E00
:1005B00011C102F012C101F0028E005209E0D89080
:1005C000025202E1015204E002320132002EF7D75A
:1005D00011AF05D0011E021E012AD8B4022A000163
:1005E0001200D8B204D0010EEA6E200EE96E006A45
:1005F000016A026A036A0101206B216B226B236B83
:100600001F511E111D111C112CE0200E246FD890BB
:10061000183719371A371B37203721372237233736
:100620001F51235D08E11E51225D05E11D51215D31
:1006300002E11C51205D0FE31C51205F1D51D8A029
:100640001D3D215F1E51D8A01E3D225F1F51D8A025
:100650001F3D235FD8800036013602360336242F33
:10066000D6D720C1EFFF21C1ECFF22C1ECFF23C18F
:10067000ECFF00011200E9500101106F3B0E176FF3
:100680009A0E166FCA0E156F146B0A0E126F0F5169
:10069000D8A41007D882010EEA6E0B0EE96E0EC1C7
:1006A0001BF10DC11AF10CC119F10BC118F117C1E1
:1006B0001FF116C11EF115C11DF114C11CF100017D
:1006C00090DF0150005213E101010F29125DD8A4FF
:1006D00002D000010CD010510CE00F0B125D01E0B4
:1006E0001EE210BF1CD010BD04D0200E12D001019C
:1006F000106B0F51125D0CE100C010F12E0E186F3F
:100700000001E7DD010110C100F0200E1017000EFE
:10071000300E002600C018F10001DBDD0101D89287
:1007200017C11BF116C11AF115C119F114C118F145
:100730001F6B1E6B1D6B0A0E1C6F000152DF03C086
:1007400017F102C016F101C015F100C014F101014A
:10075000122FA0D700012FEF04F01990F288256A1C
:10076000246A010E0101196F00011ADD242AD8B490
:10077000252A255203E12450F90801E204D019A0EA
:10078000F0D7199025D019905C0EF66E010EF76E19
:10079000CEDD030E01010B6FFA0E196F000100DDB3
:1007A00001010B2FF9D76C0EF66E010EF76E0001EA
:1007B000BEDD030E01010B6FFA0E196F0001F0DCB4
:1007C00001010B2FF9D719B002D00001DDD70001CC
:1007D00019A0FED71FC011F11EC010F11ADE4D0E78
:1007E0000101176FBC0E166F3E0E156F970E146F3A
:1007F00003C01BF102C01AF101C019F100C018F1C9
:10080000000122DE03C013F102C012F101C011F198
:1008100000C010F1C8DE02C021F001C020F0040EBB
:100820000101196F010E1A6F000140DD6E0EF66EA8
:10083000010EF76E7CDD060E0101196F020E1A6FB4
:10084000000134DD020EE96E01010E6B0D6B21C05B
:100850000CF120C00BF1010E0F6F00010CD7480EF8
:100860000101186F000135DD7A0E0101186F0001DA
:1008700030DD040E01010B6FFA0E196F000190DCE0
:1008800001010B2FF9D77A0EF66E010EF76E0001FB
:100890004EDDA4EF09F001011451D8B471D0006EFF
:1008A0001851D8B46DD0002604E3810E002668E20A
:1008B00004D07F0E005E64E363E015C11CF11951A2
:1008C0001C1B158F198F17511B03F4CF1EF11651E6
:1008D0001A03F4CF03F0F3CF1DF11B03F3501E27CF
:1008E000F4501D23000E032217511A03F3501E2744
:1008F000F4501D23000E026A0322022215511B032D
:10090000F3501D27F4500322000E022215511A0342
:10091000F3500326F4500222000E016A01221751FF
:100920001903F3501D27F4500322000E0222012266
:1009300016511903F3500326F4500222000E01222F
:1009400015511903F3500226F4500122002A01BE6A
:1009500005D01D370336023601360006000E1DAFE6
:100960000AD0032A02220122015005E1025003E1CC
:10097000035001E1002A1CBF018E1CAF019E04D070
:10098000006A016A026A036A000112008E0E006E9C
:1009900011C101F010C102F0036A01AE05D0011EC1
:1009A000021E022A01E1012A015209E102C001F0FE
:1009B000026A080E005E015202E1006A0ED0D89071
:1009C00001BE04D0023601360006F9D7010111AF8D
:1009D00002D0000102D0019E00011200800ED8A2B8
:1009E00002D00101191B01011E6B1F6B15C11DF106
:1009F00019511D1B1451D8B4DFD01C6F006E185153
:100A0000D8B4E3D01C5FD8B483D03EE319C122F13F
:100A1000228F1AC121F11BC120F11F6BD890223304
:100A2000213320331F331C2FF8D71DAF03D01E8175
:100A3000E0D01E911C911E89010EEA6E170EE96E20
:100A4000EBD01E991DBF0AD01CA113D02233213335
:100A500020331F33002AD8B4C7D00BD022BF0CD00C
:100A6000D8901F372037213722370006D8B4BCD0A2
:100A7000F5D71E8D6DD01E9D15C11DF115AF02D08D
:100A8000228FABD0229FA9D018C11CF118C100F051
:100A900014511C5F15C122F1228F16C121F117C11B
:100AA00020F11F6BD8902233213320331F331C2FAA
:100AB000F8D71DAF03D01E839CD01E931C911E8BB4
:100AC000010EEA6E1B0EE96EA7D01E9B1DBF0AD059
:100AD0001CA113D02233213320331F33002AD8B472
:100AE00083D00BD022BF0CD0D8901F3720372137AE
:100AF00022370006D8B478D0F5D71E8F29D01E9F94
:100B000019C11DF119AF02D0228F67D0229F65D085
:100B100019C122F1228F1AC121F11BC120F11DAF91
:100B200004D0229F1E8565D01E951F6B1C91010E5F
:100B3000EA6E170EE96E70D01DBF1CD015C11DF1F5
:100B40001CA106D02233213320331F33002A4CE06E
:100B50001FAF0BD0202B09E1212B07E1222B05E150
:100B6000223321332033002A3FE01EBD84D71EBF2D
:100B7000C6D71CD0800E221B22AF04D03AD019C198
:100B80001DF10AD015C11DF1225306E1215304E1E4
:100B9000205302E1006A21D022BF08D0D8901F372D
:100BA000203721372237002EF7D71ED01DAF02D0B5
:100BB000228F13D0229F11D018C100F019C122F149
:100BC0001AC121F11BC120F108D014C100F015C1D8
:100BD00022F116C121F117C120F122C101F021C17A
:100BE00002F020C103F034D0006A016A026A036A8D
:100BF0002FD01F6B201F211F221F1F1F1F2B05E13E
:100C0000202B03E1212B01E1222B1EB112D71EB3B1
:100C100054D71EB589D7B3D7EF50202705E3212B32
:100C200003E1222BD8B41C81ED52EF50212703E3BE
:100C3000222BD8B41C81ED52EF50EFBE01D0800AB8
:100C40002227D8B01C811EB9FCD61EBB3ED774D754
:100C50000001120011C118F101011551181B18AF44
:100C600005D0D894D89011BFD8802FD011C118F1D9
:100C700014C119F11051195F06E018AF26D0D850F1
:100C8000010AD86E22D015C119F11151195F06E081
:100C900018AF1BD0D850010AD86E17D016C119F161
:100CA0001251195F06E018AF10D0D850010AD86E63
:100CB0000CD017C119F11351195F06E018AF05D018
:100CC000D850010AD86E01D0D8900001120001015D
:100CD00013511519800B176F13AF05D0121F131F77
:100CE000122BD8B4132B15AF05D0141F151F142BBE
:100CF000D8B4152B12511403F3CF01F0F4CF00F048
:100D00001503F350002613511403F3500020026E14
:100D100017AF05D0011E021E012AD8B4022A000115
:100D200069EF08F001010E6B0D6B0C6B0B6BC2824F
:100D3000C2B2FED7C4CFEDF00001C3CFECF0010189
:100D40000F6B0F51630825E3D8900F35036A260F08
:100D5000016E000E032203C011F1010E0F25006E7B
:100D6000D89000360050036A260FE96E000E03206B
:100D7000EA6EECCF03F0ED52EFCF12F111C1EAFFB2
:100D800001C0E9FF03C0ECFFED5212C1EFFF0F2BD2
:100D9000D8D70F6B0F51620814E3D8900F35036A50
:100DA000260FE96E000E0320EA6EECCF03F0ED5241
:100DB000EF500B2703500C23000E0D230E230F2B97
:100DC000E9D7D8920EC11BF10DC11AF10CC119F16E
:100DD0000BC118F11F6B1E6B1D6B630E1C6F0001A6
:100DE00000DC01C01BF000C01AF021C011F120C0CE
:100DF00010F109EC02F003C017F102C016F101C0B6
:100E000015F100C014F1710E01011B6FAC0E1A6FC9
:100E10000B0E196F7A0E186F00013DDD03C013F140
:100E200002C012F101C011F100C010F1D3EC02F0C8
:100E300002C01DF001C01CF01C501A5C006E1D5059
:100E40001B5800C0F0F0F16FF251F05D006EF351ED
:100E5000F159036E00C010F10101116F000196DD20
:100E600000C010F101C011F102C012F103C013F172
:100E700003C017F102C016F101C015F100C014F152
:100E8000B90E01011B6FFC0E1A6F070E196F790E58
:100E9000186F000124EC02F003C0FFF002C0FEF066
:100EA00001C0FDF000C0FCF0F1C011F1F0C010F184
:100EB0006DDD00C010F101C011F102C012F103C0DC
:100EC00013F103C017F102C016F101C015F100C003
:100ED00014F1B90E01011B6FFC0E1A6F070E196F8A
:100EE000790E186F0001D7DC00C010F101C011F1BC
:100EF00002C012F103C013F1D89203C017F102C06F
:100F000016F101C015F100C014F1FBC01BF1FAC0CD
:100F10001AF1F9C019F1F8C018F160DD03C0FBF057
:100F200002C0FAF001C0F9F000C0F8F00101136B43
:100F3000126B7F0E116F880E106FFBC017F1FAC095
:100F400016F1F9C015F1F8C014F1000183DE06E3D3
:100F5000FB6BFA6B7F0EF96F880EF86FFBC013F115
:100F6000FAC012F1F9C011F1F8C010F10101176BCC
:100F7000166B156B146B00016DDE04E3FB6BFA6BF3
:100F8000F96BF86BF1C011F1F0C010F1FFDCF7C0A4
:100F900017F1F6C016F1F5C015F1F4C014F103C055
:100FA0001BF102C01AF101C019F100C018F173DC85
:100FB00000C010F101C011F102C012F103C013F121
:100FC00007C117F106C116F105C115F104C114F1ED
:100FD000FFC01BF1FEC01AF1FDC019F1FCC018F1F1
:100FE0005ADCD89213C117F112C116F111C115F1D3
:100FF00010C114F103C01BF102C01AF101C019F1B4
:1010000000C018F1EBDC00C010F101C011F102C00A
:1010100012F103C013F103C117F102C116F101C1AE
:1010200015F100C114F1FBC01BF1FAC01AF1F9C0AF
:1010300019F1F8C018F12FDCD89213C117F112C1C1
:1010400016F111C115F110C114F103C01BF102C05A
:101050001AF101C019F100C018F1C0DC03C013F18E
:1010600002C012F101C011F100C010F1D3EC02F086
:1010700002C0EFF001C0EEF0F1C0F3F0F0C0F2F00A
:10108000EFBF05D0EF5306E1EE51040803E3EF6B29
:10109000050EEE6FEFBF0CD0EF51020809E2FF0A18
:1010A00003E1EE51FC0804E2030EEF6FFC0EEE6F5D
:1010B0000101116B1F30106F10333F0E101711C15B
:1010C00013F110C112F1EFC015F1EEC014F10001DF
:1010D000FED501501E5C006E02501F5800C0BEFFBE
:1010E000BF6EF3EF09F00900F6CF0CF1F7CF0DF169
:1010F000F5CF18F169EC01F00CC1F6FF0DC1F7FF57
:1011000001010B2F01D002D00001EDD70001120028
:10111000EACF13F1E9CF12F101010C39F0090E6F9A
:101120000E27E20F0F6F320F116F0C510F0B0F27AD
:101130000F271127E90F106F102710270B390F0BFE
:101140001027112710371137111F11370B510F0BB3
:1011500011270E37070E0D6F0A0E10071127FDE33A
:101160000F071027FDE30E070F27FDE30D070E27DE
:10117000FDE3010EEA6E0D0EE96E070E1215129DCB
:10118000E926110EE95CD8B4128DEF50006E08E12B
:1011900012BD06D012B916D012B702D0200E03D05D
:1011A00012871299300E0026EACF0CF1E9CF0BF12D
:1011B00000C018F1000169EC01F00CC1EAFF0BC19D
:1011C000E9FF0101EE5012ADDCD700011200EACFB9
:1011D00013F1E9CF12F101010CAF08D0128F12A95F
:1011E000122B0B1F0C1F0B2BD8B40C2B0C39F00936
:1011F0000E6F0E27E20F0F6F320F116F0C510F0B96
:101200000F270F271127E90F106F102710270B3911
:101210000F0B1027112710371137111F11370B51E2
:101220000F0B11270E37070E0D6F0A0E100711272F
:10123000FDE30F071027FDE30E070F27FDE30D0762
:101240000E27FDE3010EEA6E0D0EE96E070E121574
:10125000129DE906121507E112B9E92A12B903D065
:10126000200E006E1CD0E926110EE95CD8B4128D58
:10127000EF50006E08E112BD06D012B91ED012B7B1
:1012800002D0200E0BD012AF06D02D0E006EED5006
:10129000129D129F04D012871299300E0026EACFB9
:1012A0000CF1E9CF0BF100C018F1000169EC01F07D
:1012B0000CC1EAFF0BC1E9FF0101EE5012ADD4D71A
:1012C000000169EF0AF0F86AD09E078EEA6AE96ABF
:1012D0001990199219941B6A050E1A6E1D6A1C6AE0
:1012E0001F6A1E6A1996216A206A236A226A256A81
:1012F000246AEF6BEE6BF16BF06BF36BF26BF76BD9
:10130000F66B200EF56F810EF46FFB6BFA6BF96BC9
:10131000F86BFF6BFE6BFD6BFC6B0101036B026BEB
:10132000200E016F820E006F076B066B056B046B5E
:10133000C150C00B0F09C16E070EB46E08910001B9
:10134000A7EF01F0ADEF03F019A207D019928B902F
:101350009D94F298BF6ABE6AF5D780B2BDD09D84D5
:10136000F28819A04BD023C011F122C010F109EC72
:1013700002F0CD0E0101176FCC0E166F4C0E156FDB
:101380007F0E146F03C01BF102C01AF101C019F1E6
:1013900000C018F100014BEC04F0C00E0101176F02
:1013A000E10E166F640E156F980E146F03C01BF1DB
:1013B00002C01AF101C019F100C018F1000124ECBB
:1013C00002F003C013F102C012F101C011F100C01C
:1013D00010F1D3EC02F002C021F001C020F0242A69
:1013E000D8B4252A9FD4255203E12450170805E2DA
:1013F00001010881256A246A00011990010108A1F0
:1014000069D008911BC011F11AC010F1000109EC5C
:1014100002F003C017F102C016F101C015F100C0BF
:1014200014F15C0E01011B6F8F0E1A6F6A0E196F9B
:10143000830E186F00014BEC04F003C013F102C0DF
:1014400012F101C011F100C010F1D3EC02F002C0A2
:101450000AF101C009F1010E0101196F1A6F0001B3
:1014600056EC01F0140EF66E010EF76E040E01013B
:101470000B6F000138DE000EE96E0AC10CF109C1E4
:101480000BF146DE1C0EF66E010EF76E060E010124
:101490000B6F000128DE050E0101196F020E1A6F95
:1014A000000156EC01F0000EE96E21C00CF120C0E5
:1014B0000BF12EDE0B0E0101196F020E1A6F0001E7
:1014C00056EC01F0010EE96EEFC00CF1EEC00BF12D
:1014D0007ED601015BD000018B909D94F298CF6A7B
:1014E000CE6ABF6ABE6AFB6BFA6BF96BF86BFBC026
:1014F000FFF0FAC0FEF0F9C0FDF0F8C0FCF0FFC04C
:1015000013F1FEC012F1FDC011F1FCC010F1D3ECDB
:1015100002F002C0EFF001C0EEF0F16BF06BF1C031
:10152000F3F0F0C0F2F0010E0101196F1A6F000123
:1015300056EC01F0240EF66E010EF76E97EC01F0FA
:1015400081A20FD0010E0101196F020E1A6F000166
:1015500056EC01F0360EF66E010EF76E97EC01F0C8
:101560000ED0010E0101196F020E1A6F000156EC28
:1015700001F0480EF66E010EF76E97EC01F05A0E70
:10158000F66E010EF76E97EC01F001010001DCD65A
:02159000030056
:020000040030CA
:0E000000000C180E008180000FC00FE00F40B2
:00000001FF
;PIC18F2550
;CRC=9013  CREATED="30-abr.-14 08:41"
