:1000000003308A00D02B0000FF00030E8301A10003
:100010000A08A0008A010408A2007708A300780853
:10002000A4007908A5007A08A600831383128A1118
:100030000A123328220884002308F7002408F80055
:100040002508F9002608FA0020088A00210E8300FE
:10005000FF0E7F0E09000A108A100A118207283449
:100060000C34013406348B1C47288B1007100F0802
:10007000FA000E08F7000F087A02031D37287708E8
:10008000AC007A08AD008F018E01271458280D1C92
:1000900054280D10A7184F28A71481015328A71022
:1000A0000108B101B00058280C1D58280C11071484
:1000B0008A110A121A280C00D32AD0225228492267
:1000C00000010C005228CD1E00005830840083131C
:1000D0000008031978280630F800F701F70B6E289E
:1000E000F80B6D287B30F700F70B7428800B6B281A
:1000F00008005F187D2808127E280816831608124B
:100100008312DF188528881286288816831688129D
:1001100083125F198D2808138E2808178316081379
:100120008312DF1995288813962888178316881359
:1001300000008810831288140330F700F70B9E2804
:100140008316881083128810080083160810831203
:1001500008106330F700F70BAB28AE28DC08031952
:10016000B6288316081083120814BA2883160810BC
:1001700083120810000083168810831288105D0E09
:10018000DE000F30DE055E08DF0079205D080F39E4
:10019000DE00DF00792008008316081083120810A3
:1001A00083168810831288100F30D8006520CE0186
:1001B0004E08023C031CE4280330DF0079200530A0
:1001C000D8006520CE0AD8280230DF007920CE0181
:1001D0004E08033C031CF8284E082B20CF00DC01FE
:1001E0004F08DD00A5200530D8006520CE0AE8289C
:1001F0008A110A120E2C590BFE2801294030DA0010
:100200000229DA0101305802DA075A088038DB0087
:10021000DC015B08DD00A520080057080C3A031933
:100220001829063A03192029023A031926292B29ED
:10023000DC010130DD00A5200230D8006520312925
:100240000130D8000230D900FB203129DC01103008
:10025000DD00A52031290130DC005708DD00A52094
:10026000312908000B08CE008B13831603178C1757
:100270000C140000000083120C087F39031979293F
:100280000313CF0003170D080313D00003170F0843
:100290000313D1004F08D7000D21500803178D001C
:1002A0000313510803178F0083168C170C140000DA
:1002B000000083120C0D0E0D7F39031979290313E9
:1002C000CF0003170D080313D00003170F08031303
:1002D000D1004F08D7000D21500803178D000313DC
:1002E000510803178F008D0A03198F0A031335294C
:1002F00003170313CE1B8B1708001F151F197E2928
:1003000083161E088312A8001E08A900A908031D51
:1003100090292808093C031C9029A9010A30A8004B
:100320002908023C03189F29FF3A031D9B2928082E
:10033000F63C03189F290330A900F630A800CF012E
:100340002D0CCE00CE0C3F30CE054F08D1004E080C
:10035000D0002908D3002808D2001030D400F701BB
:10036000FA01D10CD00C031CBB295208F707031863
:10037000FA0A5308FA07FA0CF70CF90CF80CD40B2C
:10038000B12978082C0295002D0896007908031CE5
:10039000790F96028A110A12772C8E30F7004F08D7
:1003A000F8004E08F900FA01F808031DE129790860
:1003B000F800F9010830F702F808031DE129F701F8
:1003C000E9290310F81BE829F90DF80DF703E129D5
:1003D000F8138A110A127F2C4E0803195C2AD600E2
:1003E000520803195C2AD6070318FD297F30D6026C
:1003F000031C5C2A03195C2A012A8130D6070318E2
:100400005C2A5608F700F801F901FA014F08DA00F2
:10041000DA175008D9005108D8001830D600D70193
:10042000581C2A2A5508FA07031C1C2AF90A031D1E
:100430001C2AF80A0319D7175408F907031C232AA2
:10044000F80A0319D7175308D000D0175008F80737
:100450000318D717D70DF80CF90CFA0CDA0CD90CD5
:10046000D80C0310D60B0F2A0130F70703185C2AAB
:10047000F81B412ADA0DFA0DF90DF80DF7030319EF
:100480005C2ADA1F522AFA0A031D522AF90A031DAE
:10049000522AF80A031D522AF80CF90CFA0CF70A32
:1004A00003195C2A4F08D7005308D706D71F5A2ACA
:1004B000F817602AF813602AF701F801F901FA0128
:1004C0008A110A12902C4E080319282BDA005208C0
:1004D0000319282BDA02031C722A7F30DA0703186B
:1004E000282B782A8130DA02031C282B0319282BA9
:1004F0005A08F700F801F901FA01D9014F08D800AC
:10050000D8175008D7005108D6001930DA0055081E
:10051000D60203189B2A0130D70203189B2AD8025F
:1005200003189B2AD90203189B2AD90AD80AD70A8A
:100530005508D607CD2A5408D7020318B62A013029
:10054000D8020318B62AD9020318B62AD90AD80A3B
:100550005408D7075508D607031CCD2AD70A031D10
:10056000CD2AD80A031DCD2AD90ACD2A53088038AE
:10057000D8020318CC2A0130D9020318CC2AD90A90
:1005800053088038D8075408D707031CAA2AD80A6A
:10059000031DAA2AD90AAA2A7A14DA0BD02ADB2A3E
:1005A0000310D60DD70DD80DD90D0310FA0DF90D86
:1005B000F80DDB0D872A5B1CE32A0310F80CF90CFD
:1005C000FA0CDB0CE62AF7030319282BDB1B0F2B95
:1005D0000310D60DD70DD80DD90D5508D602031826
:1005E000FB2A0130D7020318FB2AD8020318FB2A82
:1005F000D902031C1E2B5408D7020318062B013006
:10060000D8020318062BD902031C1E2B530880386E
:10061000D80203180F2B0130D902031C1E2BFA0A33
:10062000031D1E2BF90A031D1E2BF80A031D1E2B8A
:10063000F70A0319282BF80CF90CFA0C4F08DA000A
:100640005308DA06DA1F262BF8172C2BF8132C2B5D
:10065000F701F801F901FA018A110A12A12C8E3072
:10066000F7004E08F7024F08F9005008F800F91794
:10067000F7080319462B0310F908031D422BF8084D
:100680000319462BF90CF80CF70B3B2BCF1F4D2B06
:10069000F809F909F80A0319F90A8A110A12AA2CA9
:1006A000D6010408D5005610831B5614CF1F602BAB
:1006B000D517551ED50ACE09CF09CE0A0319CF0A80
:1006C0004F0EF038D100D107E23ED200323ED400C6
:1006D0004F080F39D207D207D407E93ED300D3071A
:1006E000D3074E0E0F39D307D407D30DD40DD40939
:1006F000D40D4E080F39D407D10D0730D0000A3081
:10070000D407D303031C802BD307D203031C842BF1
:10071000D207D103031C882BD107D003031C8C2BD9
:100720005030840083130730550555138403550555
:10073000031DA12B551A840A551AA12B2030F7004E
:10074000BE2B840754300402031955170008F70024
:10075000031DB22B551BB22B551ACC2BD519B22B1E
:100760002030BD2BD51FBA2B2D30F7008403551335
:10077000D513BE2BD51555123030F707CF0104081D
:10078000CE004F10831B4F147708D7000D214E0861
:10079000840083134F188317840A551FA22B080067
:1007A000840183131F3083052710A9010A30A80094
:1007B000AB01AA01AD01AC01A710AF01AE01B101BF
:1007C000B001B201B601B501B801B701BC01BB016E
:1007D000BA017F30B900C001BF01BE01BD01C40133
:1007E000C301C201C101C801C701C6017E30C500F5
:1007F000CC01CB01CA01C90183161F149F141F1518
:100800009F1107309C0083124D10FF308316850026
:10081000F7308600F03087008312CC285B30031756
:100820008D0000308F00031332210330D8000130D7
:10083000D900FB205C3003178D0000308F000313BC
:1008400032210230CE00FA30D8006520CE0B232CA6
:10085000613003178D0000308F00031332216230A6
:1008600003178D0000308F000313322183161F10F1
:100870009F101F159F111F1383121F179F17831699
:100880009F1783121F140030F8001F08C73978041F
:100890009F0083160108C0398100853083129000C3
:1008A0000030F800043892008330831692000A303A
:1008B0008312970087100C309D0028309B00831610
:1008C0009D0183120B1683160C15C03083128B0406
:1008D0008316011783120710271C772CB20A3208DF
:1008E000133C031D752C4D14B20127107D294D1C9E
:1008F000C62C4D103108CF003008CE00CD29CD30A8
:10090000D100CC30D0004C30CF007F30CE007A0800
:10091000D5007908D4007808D3007708D200EC29F4
:10092000C030D100E130D0006430CF009830CE002C
:100930007A08D5007908D4007808D3007708D20067
:10094000632A7A08D1007908D0007808CF007708A8
:10095000CE002F2B7908AF007808AE000530D80004
:100960000130D900FB20013084002908CF0028087D
:10097000CE0050230530D8000230D900FB200130D2
:1009800084002B08CF002A08CE0050236C2C630073
:02400E00323F3F
:00000001FF
;PIC16F877A
;CRC=9BB8  CREATED="02-nov-11 20:34"
