:020000040000FA
:060000002AEF13F01200CC
:020006001200E6
:0600080081EF01F012007F
:02000E000200EE
:10001000E02600006000000036000000DE26000040
:08002000D701000002000000FE
:08002800D9CFE6FFE1CFD9FFBB
:10003000FE0EDB50010B02E1000E01D0010EE8B014
:100040008A8AE8A08A9AFE0EDB50020B02E1000EBB
:1000500001D0010EE8B08A88E8A08A98FE0EDB5035
:10006000040B02E1000E01D0010EE8B08A86E8A080
:100070008A96FE0EDB50080B02E1000E01D0010E45
:10008000E8B08A84E8A08A9400008A8C000000000E
:100090008A9CE552E7CFD9FF1200D9CFE6FFE1CF26
:1000A000D9FF8A9E050EE66E46EC13F0E552939A50
:1000B000939893969394FE0EDB5002E08A8E01D0C3
:1000C0008A9E0000FD0EDB380F0BE66EADDFE552B9
:1000D000FD0EDB500F0BE66EA7DFE552E552E7CFD2
:1000E000D9FF1200D9CFE6FFE1CFD9FFE652939EA8
:1000F000939C8A9E8A9C939A939893969394190EB4
:10010000E66E0AEC13F0E552190EE66E0AEC13F0F7
:10011000E552190EE66E0AEC13F0E552DF6A030EA3
:10012000DF5C0BE2030EE66E7FDFE552190EE66E32
:100130000AEC13F0E552DF2AF2D7020EE66E74DF06
:10014000E552DF6ADF50146E156A040E145C000E6F
:10015000155814E2DF50F76AD60FF66E260EF72216
:100160000800F550E66EE66A98DFE552E552190E92
:10017000E66E0AEC13F0E552DF2AE4D70101010E26
:10018000026F036FE552E552E7CFD9FF1200D9CFD6
:10019000E6FFE1CFD9FFE652FD0EDB0403E0400E9F
:1001A000DF6E01D0DF6AFE0EDB04DF26800EDF107B
:1001B000E66EE66A72DFE552E552E552E552E7CFB8
:1001C000D9FF1200D9CFE6FFE1CFD9FFFE0EDB50F9
:1001D000080A1CE0020A12E0060A09E0FE0EDBCF64
:1001E000E6FF010EE66E59DFE552E55216D0010E2C
:1001F000E66EE66A52DFE552E5520FD0020EE66E79
:10020000010EE66EC4DFE552E55207D0100EE66E31
:10021000E66A43DFE552E55200D0E552E7CFD9FF69
:100220001200D9CFE6FFE1CFD9FFFE0EDBCFE6FF0C
:10023000E66A33DFE552E552E552E7CFD9FF120017
:10024000D9CFE6FFE1CFD9FFFD0EDBCFE6FFFE0EF3
:10025000DB50E8240C09E552E710E66EE66A1DDF84
:10026000E552E552E552E7CFD9FF1200D9CFE6FFBC
:10027000E1CFD9FFFD0EDBCFE9FFFE0EDBCFEAFFBA
:10028000EF500EE0FD0EDBCFE9FFDB2AFE0EDBCFE9
:10029000EAFF01E3DB2AEF50E66E94DFE552EAD78E
:1002A000E552E7CFD9FF1200D9CFE6FFE1CFD9FF62
:1002B000FD0EDBCFF6FFFE0EDBCFF7FF0800F5509B
:1002C0000FE0FD0EDBCFF6FFDB2AFE0EDBCFF7FFE4
:1002D00001E3DB2A0800F550E66E74DFE552E8D74B
:1002E000E552E7CFD9FF1200D9CFE6FFE1CFD9FF22
:1002F000FE0EDBCFE6FF66DFE552E552E7CFD9FF22
:100300001200DACFE4FFE2CFDAFFE652F2A216D013
:10031000F2928B90CF50286E28C029F0286ACE50D8
:1003200000012810746F29C075F00001766B776B9F
:10033000CF6ACE6A0001010E646F30D0F0A018D0F1
:10034000F0900001675106E10001010E676FB36A8A
:10035000B26A0DD00001676BB350286E28C029F037
:10036000286AB250000128106E6F29C06FF016D0B5
:100370009EA009D09E900001010E656F8B909D9408
:10038000BE68BF680BD0A1A205D0A19200016E6922
:100390006F6904D09EA402D09E948B800000E55229
:1003A000E5CFDAFF1100D9CFE6FFE1CFD9FF030E89
:1003B000E126DF6A0101D769D86985D98B900A0ED9
:1003C0000001686F696B7EEC06F0640EE66EE1EC8E
:1003D00012F0E552000165510AE0656B8B90220E28
:1003E000E66E220EE66E60DFE552E552E7D780B298
:1003F00006D19D84F288CD80645157E0646BC00EB5
:10040000146EE10E156EE40E166E4B0E176E6EC076
:1004100006F06FC007F05DEC0DF005C01CF006C0E3
:100420001DF007C01EF008C01FF01CC00AF01DC060
:100430000BF01EC00CF01FC00DF060C005F061C0D5
:1004400006F062C007F063C008F077EC0EF005C05C
:1004500018F006C019F007C01AF008C01BF018C049
:100460000AF019C00BF01AC00CF01BC00DF014C03C
:1004700005F015C006F016C007F017C008F024EC10
:100480000EF0E4EC0EF006C06CF007C06DF09CD9E5
:100490000001702B000E7123180E705D000E715953
:1004A00004E3010EDF6E706B716BDF5001E1A6D0CB
:1004B000DF6AC00E146EE10E156EE40E166E4B0E62
:1004C000176E6EC006F06FC007F05DEC0DF005C052
:1004D0001CF006C01DF007C01EF008C01FF01CC0B5
:1004E0000AF01DC00BF01EC00CF01FC00DF060C064
:1004F00005F061C006F062C007F063C008F077EC59
:100500000EF005C018F006C019F007C01AF008C0B8
:100510001BF018C00AF019C00BF01AC00CF01BC079
:100520000DF014C005F015C006F016C007F017C096
:1005300008F024EC0EF0E4EC0EF006C06CF007C0FE
:100540006DF068C006F069C007F05DEC0DF005C005
:1005500014F006C015F007C016F008C017F05C0EC6
:100560000A6E8F0E0B6EEA0E0C6E410E0D6E14C0ED
:1005700005F015C006F016C007F017C008F077ECBC
:100580000EF0E4EC0EF006C068F007C069F0010E52
:10059000E66EE66EFCDDE552E55268C0E6FF69C036
:1005A000E6FF140E146E220E156E166A14C0E6FFD6
:1005B00015C0E6FF16C0E6FF7CEC10F0176E050EC6
:1005C000E15E1750020EE66E010EE66EE0DDE552CA
:1005D000E5526CC0E6FF6DC0E6FF060E146E220EFB
:1005E000156E166A14C0E6FF15C0E6FF16C0E6FFDA
:1005F0007CEC10F0176E050EE15E175059D08B9011
:10060000CD909D94F298CF6ACE6ABE68BF68826B27
:10061000836B846B856B82C086F083C087F084C057
:1006200088F085C089F082C005F083C006F084C0E0
:1006300007F085C008F0E4EC0EF006C078F007C0C3
:1006400079F0000E00017A6F7B6B7C6F7D6B640E1E
:10065000E66EE1EC12F0E552010EE66EE66E97DD15
:10066000E552E552F40EE66E210EE66E1DDEE55211
:10067000E55281A20FD0020EE66E010EE66E87DD16
:10068000E552E552E30EE66E210EE66E0DDEE55212
:10069000E5520ED0020EE66E010EE66E78DDE552F2
:1006A000E552D20EE66E210EE66EFEDDE552E55213
:1006B00091D6030EE15C02E2E16AE552E16EE55299
:1006C000E7CFD9FF12009268030E936EF80E946E76
:1006D00009DD220EE66E220EE66EE6DDE552E552FB
:1006E000010EE66E020EE66E52DDE552E552C10ED7
:1006F000E66E210EE66ED8DDE552E552020EE66E9C
:10070000E66E45DDE552E552B10EE66E210EE66E6F
:10071000CBDDE552E552640EE66EE1EC12F0E552F7
:10072000640EE66EE1EC12F0E552640EE66EE1EC6A
:1007300012F0E552640EE66EE1EC12F0E552640E42
:10074000E66EE1EC12F0E552220EE66E220EE66E47
:10075000ABDDE552E5520E0EE66E040EE66EAB0E14
:10076000E66EC7EC11F0E552E552E552850EE66EF5
:10077000A5EC12F0E552040EE66EC6EC12F0E5525E
:10078000FD0EE66E84EC12F0E5520A0EBD6E830E8D
:10079000E66E54EC11F0E552280EE66EE66A31EC96
:1007A00012F0E552E552F26AF18CF18AD09EF2988D
:1007B000F086F08C9D80A082F28CF28E8B900001EE
:1007C000656BBE68BF6812006DEC13F066EC13F049
:1007D000000901E0FBD754EC13F0F3CF68F0F4CF3D
:1007E00069F000010A0E685D000E695903E20A0E05
:1007F000686F696BFC0ED8806855030E695504E27A
:10080000FC0E686F030E696F68C018F069C019F0BC
:100810001A6A1B6A74C004F075C005F076C006F051
:1008200077C007F0096A040E0A6E0B6A0C6A60EC66
:1008300012F018C009F019C00AF01AC00BF01BC062
:100840000CF08FEC11F000500001745D146E01503B
:100850007559156E02507659166E03507759176EFA
:1008600014C072F015C073F072C0BEFF73C014F0F4
:10087000156A1450BF6E1200D9CFE6FFE1CFD9FF41
:10088000050EE126DE6ADE6ADE6ADD6ADD52DD52D1
:100890006DEC13F066EC13F0000901E0FBD754ECAB
:1008A00013F0F3CFCBF1F4CFCCF1040EDB6ADB50C5
:1008B000630820E3040EDB28E96EEA6AD890E93683
:1008C000EA36050EE926010EEA22EECF14F0EFCF4C
:1008D00015F0040EEA6ADB34FE0BEA36E96E050E0B
:1008E000E926010EEA2214C0EEFF15C0EDFF040E4A
:1008F000DB2ADDD7040EDB6ADB5062082AE3040E34
:10090000EA6ADB34FE0BEA36E96E050EE926010ED3
:10091000EA22EECF14F0EFCF15F0166A176AD9CF9E
:10092000E9FFDACFEAFFEE501426EE501522EE5022
:100930001622EE50172214C0DFFF010E15C0DBFF98
:10094000020E16C0DBFF030E17C0DBFF040EDB2A0E
:10095000D3D7D9CFE9FFDACFEAFFEECF04F0EECF5D
:1009600005F0EECF06F0EFCF07F0630E096E0A6ACE
:100970000B6A0C6A60EC12F004C068F005C069F004
:100980006CC006F06DC007F05DEC0DF005C014F012
:1009900006C015F007C016F008C017F0710E0A6EF9
:1009A000AC0E0B6E0B0E0C6E3D0E0D6E14C005F0F2
:1009B00015C006F016C007F017C008F077EC0EF06F
:1009C000E4EC0EF006C06AF007C06BF000016A515B
:1009D000685D7A6F6B5169597B6F7A517B1101E1C8
:1009E00083D17C517A5D186E7B517D55196E18C08C
:1009F00006F019C007F05FEC0DF005C014F006C05A
:100A000015F007C016F008C017F092C00AF093C0A6
:100A10000BF094C00CF095C00DF014C005F015C09B
:100A200006F016C007F017C008F024EC0EF005C061
:100A300086F006C087F007C088F008C089F07AC049
:100A400006F07BC007F05FEC0DF005C018F006C0A3
:100A500019F007C01AF008C01BF092C00AF093C04A
:100A60000BF094C00CF095C00DF018C005F019C043
:100A700006F01AC007F01BC008F077EC0EF005C0B6
:100A800014F006C015F007C016F008C017F082C0B9
:100A90000AF083C00BF084C00CF085C00DF014C0C8
:100AA00005F015C006F016C007F017C008F08EEC70
:100AB0000DF005C082F006C083F007C084F008C0C6
:100AC00085F00A6A0B6A7F0E0C6E440E0D6E82C0B2
:100AD00005F083C006F084C007F085C008F013EC71
:100AE0000FF0010A07E10001826B836B7F0E846FB8
:100AF000440E856F0A6A0B6A0C6A0D6A82C005F0A3
:100B000083C006F084C007F085C008F01CEC0FF02D
:100B1000010A05E10001826B836B846B856B7AC0EF
:100B200006F07BC007F05FEC0DF005C01CF006C0BE
:100B30001DF007C01EF008C01FF01CC00AF01DC049
:100B40000BF01EC00CF01FC00DF07EC005F07FC082
:100B500006F080C007F081C008F077EC0EF005C009
:100B600018F006C019F007C01AF008C01BF086C0C4
:100B70000AF087C00BF088C00CF089C00DF08EC061
:100B800005F08FC006F090C007F091C008F077EC38
:100B90000EF005C020F006C021F007C022F008C00A
:100BA00023F020C00AF021C00BF022C00CF023C0BB
:100BB0000DF018C005F019C006F01AC007F01BC0F0
:100BC00008F08EEC0DF005C014F006C015F007C05B
:100BD00016F008C017F082C00AF083C00BF084C082
:100BE0000CF085C00DF08AC005F08BC006F08CC0FB
:100BF00007F08DC008F077EC0EF005C024F006C0B9
:100C000025F007C026F008C027F024C00AF025C050
:100C10000BF026C00CF027C00DF014C005F015C075
:100C200006F016C007F017C008F08EEC0DF0E4ECEB
:100C30000EF006C078F007C079F07AC07CF07BC077
:100C40007DF00A0E000179AF02D0D89003D0785D14
:100C5000000E795903E20A0E786F796B793504E258
:100C60007851FC08030E795504E2FC0E786F030EF0
:100C7000796F78C018F079C019F01A6A1B6A19AE3A
:100C800002D01A681B6874C004F075C005F076C005
:100C900006F077C007F0096A040E0A6E0B6A0C6A48
:100CA00060EC12F018C009F019C00AF01AC00BF07D
:100CB0001BC00CF08FEC11F000500001745D146E3D
:100CC00001507559156E02507659166E03507759BA
:100CD000176E14C072F015C073F072C0BEFF73C0FF
:100CE00014F0156A1450BF6E050EE15C02E2E16A71
:100CF000E552E16EE552E7CFD9FF12000001646BC7
:100D0000F288706B716B320EE66E46EC13F0E552B2
:100D10000001702B000E7123FA0E705D000E7159E8
:100D200001E304D06451EFE0646B32D0646BA20E37
:100D3000E66E210EE66E54EC01F0E552E552640ECB
:100D4000E66EE1EC12F0E552640EE66EE1EC12F0B4
:100D5000E552640EE66EE1EC12F0E552220EE66E0C
:100D6000220EE66E54EC01F0E552E552640EE66E9A
:100D7000E1EC12F0E552640EE66EE1EC12F0E552A1
:100D8000640EE66EE1EC12F0E55200016451CFE032
:100D90006451FEE04D0E146EBC0E156EBE0E166E46
:100DA0004B0E176E74C004F075C005F076C006F0E7
:100DB00077C007F072EC0DF005C018F006C019F00E
:100DC00007C01AF008C01BF018C00AF019C00BF0D9
:100DD0001AC00CF01BC00DF014C005F015C006F0D1
:100DE00016C007F017C008F024EC0EF0E4EC0EF08B
:100DF00006C06CF007C06DF0010EE66E040EE66EE4
:100E0000C7EC00F0E552E552970EE66E210EE66E55
:100E100054EC01F0E552E552020EE66E060EE66E67
:100E2000C7EC00F0E552E5526CC0E6FF6DC0E6FF8E
:100E3000900E146E210E156E166A14C0E6FF15C0D2
:100E4000E6FF16C0E6FF7CEC10F0176E050EE15EC3
:100E50001750640EE66EE1EC12F0E552640EE66E99
:100E6000E1EC12F0E552640EE66EE1EC12F0E552B0
:100E7000640EE66EE1EC12F0E552640EE66EE1EC13
:100E800012F0E552220EE66E220EE66E54EC01F0F0
:080E9000E552E5529D841200B9
:080E980088EC0CF0FB0EDBCF2F
:100EA000F3FFDB06F35000090AE0D6EC0CF0FA0E73
:100EB00041EC0DF0F3E1151CF1E1010E01D0000E43
:100EC000B7EF0CF088EC0CF03B0EE12402E3E16894
:100ED000E652E16E010EDB6A020EDB6AF90EDBCF31
:100EE000F6FFFA0EDBCFF7FFFB0EDBCFF8FF0800B3
:100EF000F550DF6EDF5002E1DBEF0BF0250EDF5C1B
:100F000002E0CEEF0BF0030EDB6A040EDB6A050E87
:100F1000DB6A060EDB6A070EDB6AF0EC0BF02D0EC7
:100F2000DF5C0CE02B0EDF5C09E0200EDF5C06E0EE
:100F3000230EDF5C03E0300EDF5C1AE1DF50300A85
:100F400014E0130A0FE0030A0AE00B0A05E0060AA0
:100F5000E4E1030EDB80E1D7030EDB82DED7030E74
:100F6000DB84DBD7030EDB86D8D7030EDB88D5D72F
:100F70002A0EDF5C1BE1ECEC0BF03AEC0CF010E01D
:100F8000030EDB8006680768130EDBCF0BF0140E30
:100F9000DBCF0CF000EC10F0040E04C0DBFF03D03C
:100FA000130E23EC0CF0F0EC0BF00BD0090EDB6A07
:100FB00091EC0CF003E005EC0DF0FAD7090E23ECF0
:100FC0000CF0030EDBB0DB982E0EDF5C1BE1F0ECC7
:100FD0000BF02A0EDF5C0BE1ECEC0BF03AEC0CF0C2
:100FE00003E1130E75EC0CF0F0EC0BF00BD0090ED6
:100FF000DB6A91EC0CF003E005EC0DF0FAD7090E7A
:1010000075EC0CF0680EDF5C07E1F0EC0BF0680E9D
:10101000DF5C1DE1030E18D0740EDF5C17E07A0E62
:10102000DF5C14E0480EDF5C06E0540EDF5C03E09A
:101030005A0EDF5C02E1020E07D06C0EDF5C03E0AB
:101040006A0EDF5C04E1010EC8EC0CF0C9DBDF5076
:101050006E0A01E17FD31E0A01E192D1200A01E16B
:101060008FD13F0A01E149D11A0A01E146D10D0AA7
:1010700001E143D1200A01E140D13A0A01E13DD129
:10108000200A01E13AD1260A01E135D10D0A01E138
:1010900032D11A0A01E1D9D0200A4AE0300A1FE011
:1010A000460A0EE0250A01E083D3D950F90FE96E14
:1010B000FF0EDA20EA6E010EEE5E000EEE5AEE5AD8
:1010C000D6EC0CF0250EE66E95DB03E1151C01E174
:1010D00069D3D2EC0CF001E26BD3DB2A69D3080EA2
:1010E000DB6A040EDB50010806E2040EDB049AEC16
:1010F0000CF0DB508BDB080EDB5009E0030EDB50FD
:10110000010B05E172DB01E04DD3080EDB6A64DB05
:10111000EFCFDFFF4AEC0DF003E1151C01E142D3F4
:10112000D2EC0CF001E3DB2A60DB01E141D33AD3DE
:10113000070EDB5002080FE116EC0DF0030EDDEC9C
:101140000CF00E0EEECFDBFF0F0EEECFDBFF100E1E
:10115000EECFDBFF20D0F70EDBCF17F0F80EDBCFA2
:1011600018F0020E175E000E185AF70E17C0DBFFBC
:10117000F80E18C0DBFF17C0E9FF18C0EAFFCDEC7E
:101180000CF0166A0E0E14C0DBFF0F0E15C0DBFF4D
:10119000100E16C0DBFF0E0EDBCFE6FF0F0EDBCF0F
:1011A000E6FF100EDBCFE6FF0CEC12F0E552E55245
:1011B000E552130E05C0DBFF140E06C0DBFF060E62
:1011C000DB5005E0130E11EC0DF001E26ADB35ECAB
:1011D0000DF002E2130E37DBF8EC0CF006E0040E23
:1011E00011EC0DF002E2050E2EDB030EDBB005D094
:1011F000FCDA01E0D7D2080EDB6A090EDB6A0E0EBC
:10120000DBCFF6FF0F0EDBCFF7FF100EDBCFF8FFC3
:101210000800F550DF6EDF5014E03BEC0DF011E2FA
:101220004AEC0DF003E1151C01E1BCD2BBDB01E38C
:10123000DB2A090EDB2AD9500E0FE96E000ECBDB3C
:10124000E7D7D3DA01E1B4D2ADD2C6DA110EEECFD0
:10125000DBFF120EEDCFDBFF110EDBCFE6FF120E30
:10126000DBCFE6FFFEEC11F0E552E552130EF3CFB3
:10127000DBFF140EF4CFDBFF060EDB5004E0130E91
:10128000D0DB01E20EDB35EC0DF002E2130EDBDA0F
:10129000AFDB05E0040EC5DB02E2050ED4DA030E77
:1012A000DBB005D0A2DA01E07DD2080EDB6A090EC0
:1012B000DB6A110EDBCFE9FF120EDBCFEAFFEFCFC7
:1012C000DFFFDF5014E0D7DB12E2E4DB03E1151CA3
:1012D00001E168D267DB01E3DB2A090EDB2A110E8C
:1012E000DB2ADBCFE9FF120EE8E3DB2AE6D77DDA63
:1012F00001E15ED257D2030EDB8E070EDB0410E154
:1013000095DB040E5ADB0A0EEECFDBFF0B0EEECFA1
:10131000DBFF0C0EEECFDBFF0D0EEECFDBFF6CD054
:10132000070EDB5003082CE1030EDBAE0DD0B2DA62
:10133000020E76DAEFCF14F0156A166A176A14AE49
:1013400039D01568166835D0F70EDBCF15F0F80EDA
:10135000DBCF16F0020E155E000E165AF70E15C002
:10136000DBFFF80E16C0DBFF15C0E9FF16C0EAFF71
:10137000EFCF14F00A0E14C0DBFF0B0EDB6A38D07F
:10138000070EDB50020809E1030EDBAE04D059DB87
:1013900016AE10D00ED055DB0DD0030EDBAE12D042
:1013A00079DA020E3DDAF9DA166A176A15AE02D05A
:1013B00016681768E2DA0C0E16C0DBFF0D0E17C0B8
:1013C000DBFF1AD0F70EDBCF16F0F80EDBCF17F0ED
:1013D000020E165E000E175AF70E16C0DBFFF80E4F
:1013E00017C0DBFF16C0E9FF17C0EAFFD6DAC5DA7F
:1013F0000C0EDB6A0D0EDB6A060EDB5005E1010EFA
:10140000F36E050EF3CFDBFF150EDB6A160EDB6AFB
:10141000D950370F146E000EDA20156E390E14C035
:10142000DBFF3A0E15C0DBFF380EDB6A080EDB6A05
:101430000A0EAEDADF50780A12E0200A10E0280A1D
:101440000CE0200A0AE03F0A06E00D0A02E0200A4A
:1014500008E1020E05D0080E03D0080EDF26100E9C
:1014600097DA030EDBBE02D0DB92DB94DB50800BFD
:1014700024E08ADAD890030EEB50000A08E6000E4A
:10148000EE5C000EEE58000EEE58000EEE5815E21F
:1014900013DA09680A680B680C688FEC11F00A0E01
:1014A00000C0DBFF0B0E01C0DBFF0C0E02C0DBFF38
:1014B0000D0E03C0DBFF2D0E08D0030EDBA202D001
:1014C0002B0E03D0DBA408D0200EF36E170EF3CF43
:1014D000DBFF150EDB2A02D0170EDB6A050EDB5090
:1014E00003E1B7D901E189D0BA0E146E260E156E4C
:1014F000000E166E070EDBCF17F0186A196A1A6A0B
:1015000017C009F018C00AF019C00BF01AC00CF08F
:10151000D3D960EC12F014500024F36E1550012062
:10152000F46E16500220F86EF4CFF7FFF3CFF6FFFB
:101530000800090EF5CFDBFF580EDF5C0FE1610EEE
:10154000F36E090E7BD90AE3200E146E090EDBCF71
:10155000E7FF1450E75E090EE7CFDBFF070EDBCF96
:1015600014F0156A166A176A0FDA14C009F015C06C
:101570000AF016C00BF017C00CF0EECF04F0EECF5F
:1015800005F0EECF06F0EFCF07F060EC12F007C0E9
:10159000EDFF06C0EDFF05C0EDFF04C0EFFF390E03
:1015A000DBCFE9FFDB063A0EDBCFEAFF01E2DB0629
:1015B000090EDBCFEFFF150EDB2A4BD995E1030EA9
:1015C000DBA61DD06F0EDF5C06E1C1D918E3150E56
:1015D000DB285BDA14D0780EDF5C09E0580EDF5CA4
:1015E00006E0620EDF5C03E0420EDF5C08E1020E03
:1015F000F36E160EF3CFDBFF02D0150EDB6A030E7F
:10160000DB50100B0EE0040EDBCF14F0050EDB50A8
:10161000D880145406E2060EDB5003E1040EDB50C2
:1016200034DA95D90AE2050EDBCFE7FF150EDB5061
:10163000E75E050EE7CFDBFF02D0050EDB6A040E86
:10164000DBCF14F0160E45D9D880145414E2160ED0
:10165000DBCFE6FF150EDBCFE6FF040EDBCFE6FFA8
:10166000050EDB50E552E75CE552D880E754E552C1
:10167000D880E7545FD9030EDB50010B0BE1080E55
:10168000DB5008E0B2D801E08DD0080EDB50BED8A8
:10169000080EDB6A170EDB5007E088D9170EF1D968
:1016A00003E1151C01E17ED0160EDB5016E07ED959
:1016B000300EE66E9FD802E1151C74E077D9DFCFBB
:1016C000E6FF12EC11F0E552E552E552F4CF15F0C9
:1016D0000001F31C02E1151C65E0050EDBCF14F0E0
:1016E000160EDB50D880145409E2050EDBCFE7FF5D
:1016F000160EDB50E75E050EE7CFDBFF300EE66E21
:10170000050ECBD94FE1390EDB2ADBCFE9FF3A0ECC
:1017100001E3DB2ADBCFEAFF090EEFCFDBFFDB5073
:101720000EE044D9090EADD902E1151C3BE0390E9B
:10173000DB2ADBCFE9FF3A0EEDE3DB2AEBD755D806
:1017400031E1160EDBCFE6FF080EC3D8E552E724E1
:101750005DD82ED0070EDB50030A1CE0010A14E00E
:10176000030A07E07BD9DBCFEEFF020EDBCFEDFFF4
:101770001FD0F5D8196A17AE02D0186819682CD88E
:10178000BCD819C0EEFF14D0EAD817BE186824D808
:10179000B4D80ED063D9DBCFEFFF0AD07BD905E1F7
:1017A000151C03E1F368F46810D0FCD801E3DB2AD0
:1017B00079D977EF07F0010EDBCF14F0020EDBCF03
:1017C00015F014C0F3FF15C0F4FF3B0EE15C02E21C
:1017D000E16AE552E16ECBD029D9020EDDEF0CF0C3
:1017E00061D90800F550DF6E1200200EE66E080E7B
:1017F0004DEF0DF012EC11F0E552E552E552F3CF4A
:1018000014F0F4CF15F00001F31C1200146E156AE9
:10181000D950010F4DD91450EE261550ED2212006B
:10182000185E000E195AF70E18C0DBFFF80E19C02B
:10183000DBFF18C0E9FF19C0EAFF1200DBCFF4FF9D
:10184000F350F45C1200DB50E76E040EE7CFDBFFD1
:1018500012000A0EDBCF14F00B0EDBCF15F00C0ECE
:10186000DBCF16F00D0EDBCF17F01450151016104D
:1018700017101200130EEECFDBFF140EEDCFDBFFBF
:10188000130EDBCF14F0140EDBCF15F00001800E29
:1018900015141200F70EDBCF18F0F80EDBCF19F09D
:1018A0001200050EDB50E66ED950130F01D9E55238
:1018B000E750EE6EED6A12000A0EDBCF04F00B0E5D
:1018C000DBCF05F00C0EDBCF06F00D0EDBCF07F003
:1018D0001200DBCFE6FF150EDBCFE6FF050EDB5077
:1018E000E552E724E552E7241200DB50CED8010E82
:1018F000F36E060EF3CFDBFF1200EE50EFCFEAFFE0
:10190000E96E16C0EEFF17C0EEFF18C0EEFF120022
:10191000D9CFE6FFDACFE6FFE1CFD9FFE2CFDAFF9A
:101920001200DFCFE6FFE66AF8EC12F0E552E5526E
:10193000F3501200E76E080EE7CFDBFF1200EECF88
:1019400014F0EECF15F0EFCF16F0176A1200050E67
:10195000DBCF14F0150EDB50D88014541200010EAA
:10196000DBCF16F0020EDBCF17F0186A1200E5523B
:10197000E5CFDAFFE7CFD9FF12000A0E14C0DBFF74
:101980000B0E15C0DBFF1200D9500A0F58EF0DF0F7
:10199000F36E070EF3CFDBFF1200EECF14F0EFCFA4
:1019A00015F01200010EDB2A020E1200FC0EDBCF36
:1019B000E6FFFD0EDBCFE6FF1200145E000E155AA7
:1019C000F70E14C0DBFFF80E15C0DBFF14C0E9FFF3
:1019D00015C0EAFF1200DA20EA6EEF2AEECFF6FF1A
:1019E000000EEF22EECFF7FFEF22EECFF8FF12004E
:1019F000040EDBCFE6FF130EDB50E552E75C9ADF07
:101A0000DB5004DF060EDB501200090EDB500A0D1E
:101A1000F350DF24D00FE76E090EE7CFDBFFF0EFC6
:101A20000BF0DB50F36E050E1EEF0CF0F70EDBCF64
:101A300014F0F80EDBCF15F01200DFCFE6FFFAEF5F
:101A40000BF028DF030EECDE9FEF0CF04CEC07F000
:101A5000E552E552E552E55200091200BDDEEE50B6
:101A6000EFCFEAFFE96E010E1200130EDB50F36EAA
:101A7000040E1EEF0CF0040EDB50F36E090E1EEF89
:101A80000CF0DBCFE6FFFAEF0BF0E76E050EE7CFC9
:101A9000DBFF12008BDF1DEF0DF0DBCFE6FF86DFF3
:101AA00026EF0DF0D950F90FE96EFF0EEBEF0CF0B9
:0A1AB000E96E000EDA20EA6E120063
:061ABA000F9E08D00F9EF4
:101AC00007AE05D0066C071EE86A07220F8E07C016
:101AD00001F006C000F0136A126A8E0E026E036AED
:101AE00096EF0FF00F9E0CD00F9E07AE09D0046C3E
:101AF000051E061E071EE86A0522062207220F8E13
:101B000007C001F006C000F005C013F004C012F0D9
:101B10009E0E026E036A96EF0FF00D7E0F6AD2ECF6
:101B20000FF0EAEC0FF00FB67AEF0FF00FA20AD029
:101B30000FAA03D00FBE7AEF0FF00FA486EF0FF0BD
:101B400083EF0FF00FAA05D00FAC86EF0FF083EFF5
:101B50000FF00FA00AD00FA808D00FBE04D00FA41A
:101B600002D08FEF0FF093EF0FF0126A036A0D505F
:101B7000085C116E10E305C013F006C000F007C04A
:101B800001F008C010F00AC005F00BC006F00CC050
:101B900007F00F3A09D00AC013F00BC000F00CC0D8
:101BA00001F00DC010F0116C0F9E0FBC0F8E10C015
:101BB00002F00FB0C2EF0FF01A0E1160C2EF0FF07B
:101BC000026A086A0FA408D0056C061E071E081ECC
:101BD000E86A0622072208220FAC08D0136C001E08
:101BE000011E021EE86A002201220222046A11522A
:101BF00007E008340732063205320432112EF9D7D5
:101C000005501326065000220750012208500222D8
:101C100004C012F00F9E02AE0BD0126C131E001EF9
:101C2000011E021EE86A13220022012202220F8EE8
:101C300002A006D0D8800132003213321232102AAC
:101C400010C002F096EF0FF00F6AD2EC0FF0EAEC42
:101C50000FF00FB67AEF0FF00FA205D00FBA7AEFA0
:101C60000FF081EF0FF00FBA8DEF0FF00FA005D03E
:101C70000FB87AEF0FF08DEF0FF00FB881EF0FF084
:101C8000036A7F0E0824026EE86A03220D50025E8A
:101C9000E86A035A1A0E106E086A126A136A006A1A
:101CA000016A0A50055E0B50065A0C50075A000E86
:101CB000085A09E70A5005260B5006220C50072245
:101CC000000E082201D0128AD89005360636073653
:101CD0000836D8901236133600360136102EE1D76A
:101CE000075006100510D8A4128A96EF0FF00F6A5D
:101CF000D2EC0FF0EAEC0FF00FB67AEF0FF00FA274
:101D000005D00FB87AEF0FF081EF0FF00FAA05D0D2
:101D10000FB07AEF0FF081EF0FF00FB002D00FA8E5
:101D200002D08DEF0FF0036A0D500824026EE86AAE
:101D300003227E0E025EE86A035A126A136A006A80
:101D4000016A0C500702F4CF01F0F3CF00F00B5002
:101D50000702F3501326F4500022000E01220C500B
:101D60000602F3501326F4500022000E01220A50FE
:101D70000702F3501226F4501322000E0022012213
:101D80000B500602F3501226F4501322000E0022CC
:101D900001220C500502F3501226F4501322000EBB
:101DA000002201220A500602F4501226000E1322CD
:101DB000002201220B500502F4501226000E1322BD
:101DC0000022012296EF0FF00F6AD2EC0FF00FB64F
:101DD000EEEF0EF00FA20ED00FB405D07F0E076EFF
:101DE000FF0E066E1FD0800E076E066A1BD0076AB4
:101DF000066A18D00FB0FBD78F0E0860EDD77E0EA5
:101E00000864F5D78E0E085C05E0D89007320632DC
:101E1000082AF8D70FA406D0066C071EE86A072226
:101E200007AEE5D7120025EC0FF00FB6000C0FB08F
:101E3000000C0FB4000C010C25EC0FF00FB6000CD9
:101E40000FB0000C0FA4000C010C0F6AD2EC0FF0C5
:101E5000EAEC0FF00FB612000FAE08D00FA004D0BE
:101E60000FA802D00F8012000F9012000D50085CD6
:101E70000BE10C50075C08E10B50065C05E10A50D1
:101E8000055C02E10F801200D8A002D00F8E10D0A6
:101E900008500DC008F00D6E07500CC007F00C6E16
:101EA00006500BC006F00B6E05500AC005F00A6E16
:101EB0000D50085C10E0FF0F09E00F900FB403D045
:101EC0000FAE0F8412000FAE0F9412000D2AD8909F
:101ED0000C320B320A320A50055E0B50065A0C5077
:101EE000075A07BEEAD7D890053606360736082EB9
:101EF000F8D7C8D77F0E086EFF0E076E066E056E08
:101F000012007F0E0FBEFF0E086E02D07F0E086E0D
:101F1000800E076E066A056AF3D70FAE04D0800EF6
:101F2000086E076AF7D7086A076AF4D701500010ED
:101F300013101210F8E003BEF0D701BE0CD002500F
:101F40000310EBE0D8901236133600360136020645
:101F5000D8A00306F2D70350D4E10228D2E012AE93
:101F600011D07F0E121402E113A00CD0132AE86ADC
:101F70000022012207E3D880013200321332022A04
:101F80000228BFE00250C9E013C005F000C006F00F
:101F90000134076E0230086E0732089E0FBE088EAD
:101FA00080EF0FF00736083602E30F840F7E06E15C
:101FB0000F80086A076A066A056A1200082803E0AB
:101FC000D88007321200D890073202E10F82120047
:101FD0000F8612000C360D3602E30F8C0F7E06E1E1
:101FE0000F880D6A0C6A0B6A0A6A12000D2803E05A
:101FF000D8800C321200D8900C32EAE10F8A12001D
:1020000007C013F006C012F006500B02F4CF05F023
:10201000F3CF04F007500C02F4CF07F0F3CF06F033
:102020000B02F3500526F4500622E86A07221250EC
:102030000C02F3500526F4500622E86A07220CAE83
:1020400026EF10F01250065E1350075A13AE000C24
:0A2050000B50065E0C50075A000CFE
:06205A000E0EF66E000EF2
:10206000F76E000EF86E01010900F550D26F0900FD
:10207000F550D36F03E1D26701D03DD00900F55090
:10208000CD6F0900F550CE6F0900F550CF6F0900F4
:102090000900F550E96E0900F550EA6E09000900E3
:1020A0000900F550D06F0900F550D16F0900090003
:1020B000F6CFD4F1F7CFD5F1F8CFD6F1CDC1F6FFF9
:1020C000CEC1F7FFCFC1F8FF0101D05302E1D153D8
:1020D00007E00900F550EE6ED007F8E2D107F9D716
:1020E000D4C1F6FFD5C1F7FFD6C1F8FF0101D20771
:0820F000000ED35BBFD7120004
:0820F800D9CFE6FFDACFE6FFC5
:10210000E1CFD9FFE2CFDAFFE652E652E652E652DD
:10211000D950FB0F146EFF0EDA20156E14C0DEFFCF
:10212000DD6EDECFE6FFDDCFE6FFFB0EDBCFE6FFA9
:10213000FC0EDBCFE6FFFD0EDBCFE6FFD7C1E6FFEF
:10214000D8C1E6FF62EC07F0146E070EE15C02E214
:10215000E16AE552E16E1450020EF3CFDBFF030E8D
:10216000F4CFDBFF020EDBCF14F0030EDBCF15F054
:1021700014C0F3FF15C0F4FF040EE15C02E2E16A53
:10218000E552E16EE552E5CFDAFFE7CFD9FF120065
:1021900025337520487A004D61696E20666F756E33
:1021A00064004D61696E206E6F7420666F756E6499
:1021B0000053555045522D504944202056312E3061
:1021C000002053555045522D504944202056312E61
:1021D000300020202020202020202020202020200F
:1021E0002020003D3D3D3D3D3D3D3D3D3D3D3D3D96
:1021F0003D3D3D00205350494E444C4520564945F5
:10220000572E2E2E2E0052504D3D20253575202064
:10221000202020005245463D2025357520202020D5
:0422200020000C008E
:0C222400D9CFE6FFDACFE6FFE1CFD9FF0B
:10223000E2CFDAFFFB0EDBCF14F0FC0EDBCF15F0A4
:102240000001800E15141AE1FB0EDBCFE9FFFC0E36
:10225000DBCFEAFFEECFF3FFEDCFF4FFEE2A000E67
:10226000EF22F3CFE9FFF4CFEAFFFD0EDBCFEFFF64
:10227000EF50156AF36E15C0F4FF10D0FB0EDB5063
:10228000FE0806E1FD0EDBCFE6FF38EC13F005D0CB
:10229000FD0EDBCFE6FF74EC01F0E552E552E5CF31
:0822A000DAFFE7CFD9FF1200BD
:0822A800D9CFE6FFDACFE6FF13
:1022B000E1CFD9FFE2CFDAFFE652E652E652E6522C
:1022C000F8CF02F0F6CF03F00C0EBA6E050EF66EE4
:1022D000F76A300EF86E0800F550010B03E0010EAE
:1022E000DB6802D0010EDB6A010EDB5002E0949243
:1022F00001D09396CA94FD0EDB50CB6ECA8402C007
:10230000F8FF03C0F6FF040EE15C02E2E16AE55269
:0E231000E16EE552E5CFDAFFE7CFD9FF12000C
:02231E00045069
:102320000902F3CF00F0F4CF01F00A02F3500126C6
:10233000000EF420026E04500B02F3500226000E31
:10234000F420036E04500C02F350032605500902DA
:10235000F3500126F4500222000E032205500A0217
:10236000F3500226F450032205500B02F3500326CB
:1023700006500902F3500226F450032206500A02C6
:0E238000F350032607500902F3500326120003
:02238E00D9CFA5
:10239000E6FFDACFE6FFE1CFD9FFE2CFDAFFC26A8C
:1023A000C06AFC0EDB407F0B3C0BC26EFC0EDB38C0
:1023B000F00B300B146EFB0EDB500F0B1410C16EC4
:1023C000FD0EDB50040DF350380B156EFD0EDB389F
:1023D0000F0B070B146EFD0EDB50800B1410151045
:1023E000C06EFC0EDBAE03D09E9C9D8CF28CC28036
:0C23F000E552E5CFDAFFE7CFD9FF12007D
:0423FC00FE0EE3CF1F
:10240000E9FFFF0EE3CFEAFFF36AF46AEE5203E05E
:10241000F34AF42AFBD71200FF0EE3CFF8FFE55290
:10242000FF0EE3CFF7FFE552FF0EE3CFF6FFE552D5
:10243000E66AE66AE66A0900F55209E0FD0EE32A5B
:1024400005E1FE0EE32A02E1FF0EE32AF4D7FD0EBA
:10245000E3CF05F0FE0EE3CF06F0FF0EE3CF07F06B
:02246000120068
:0E246200D9CFE6FFDACFE6FFE1CFD9FFE2CF18
:10247000DAFFE652E652FC0EDBCF14F0FD0EDBCFA6
:1024800015F0060ED89014361536E804FBE114C09A
:10249000DEFF15C0DDFF010EDB50BB6EDF50E840F4
:1024A000E8403F0B300B146ECF0EBA141410BA6E06
:1024B000E552E552E552E5CFDAFFE7CFD9FF12004A
:1024C000036A026A016A006A200EE76ED890043639
:1024D0000536063607360036013602360336095011
:1024E000005C0A5001580B5002580C50035809E385
:1024F0000950005E0A50015A0B50025A0C50035A00
:08250000042AE72EE4D71200C3
:08250800D9CFE6FFDACFE6FFB0
:10251000E1CFD9FFE2CFDAFFFD0EDB50360BB16E13
:10252000B36AB26AA192FD0EDBAE02D0A08201D0E6
:10253000A092DBA002D0B18E01D0B19EB180E55255
:0A254000E5CFDAFFE7CFD9FF120064
:06254A00D9CFE6FFDACF55
:10255000E6FFE1CFD9FFE2CFDAFFFD0EDB507E0BC5
:10256000CD6EFD0EDBAC02D0CD8E01D0CD9ECF6AFC
:10257000CE6A9E90DBAE02D09D8001D09D90CD8032
:0C258000E552E5CFDAFFE7CFD9FF1200EB
:04258C00D9CFE6FFBE
:10259000DACFE6FFE1CFD9FFE2CFDAFFFD0EDB5065
:1025A000FB0BCA6ECC6A9E92FD0EDBAE02D09D8202
:1025B00001D09D92CA84E552E5CFDAFFE7CFD9FF7B
:0225C000120007
:0E25C200FF0EE3502B6EEF0E01D0F30EE76E0E
:1025D000E72EE8EF12F00C0E2A6EE76AE72EEEEF18
:1025E00012F02A2EEDEF12F02B2EE6EF12F0120071
:1025F000F36AF46AFF0EE124E96EFF0EE220EA6E50
:10260000ED6607D02F0EEF6404D03A0EEF6001D0D4
:04261000F32A120097
:0C261400FF0EE3502B6E480E01D04C0E60
:10262000E76EE72EFED7E76AE72EFED72B2EF7D709
:042630000000120094
:0C263400000EF36E00EE00F0080E01D85E
:102640001200EA6002D0EE6AFCD7F350E960120093
:04265000EE6AFCD75B
:0C26540013EE00F023EE00F0F86A0F9C7B
:102660002DEC10F003EC00F0D3EC01F0FBD71200DE
:10267000FF0EE350ACBA04D0AF6AAB8EAC8A949C28
:0C268000ACA2FED7AD6EF36EF46A12003F
:04268C00FF0EE3500A
:102690002B6E1B0E00D001D0200EE76EE72EFED76A
:0826A0002B2EFAD700D0120026
:0826A800C450176E166AC350FE
:0A26B0001610F36E17C0F4FF1200BD
:0626BA00303132333435EB
:0B26C0003637383961626364656600DC
:0426CC00C250020BEB
:0626D00001E0010E120002
:0426D600280C0106C5
:0426DA00C2821200A6
:0226DE00FEFFFD
:1026E000CDCCCC3F000101010A0000000000FFFF3B
:1026F00000000000000000000000000000000000DA
:10270000004000000000000000000000803F0000CA
:062710000000B9FC873C4B
:020000040030CA
:0100000000FF
:010001000CF2
:0100020010ED
:0100030012EA
:010005008179
:010006008178
:00000001FF
